:020000040800F2
:10000000D0AF0020E90200084B2F0008512800085B
:10001000492F00081F0600080136000800000000F4
:10002000000000000000000000000000290200089D
:100030003D07000800000000850200084D2F000861
:100040000303000803030008030300080303000878
:1000500003030008030300083F0700080303000828
:1000600003030008450700084B07000803030008C6
:100070004506000803030008030300080303000803
:100080000303000803030008030300080303000838
:1000900021060008030300080303000851070008B5
:1000A0000303000803030008030300080303000818
:1000B0001D3000082930000803030008030300086E
:1000C00003030008030300080303000803030008F8
:1000D00003030008DD35000803030008E9350008C4
:1000E00003030008030300080303000803030008D8
:1000F00003030008030300080303000803030008C8
:100100000303000803030008353000080303000858
:1001100003030008030300080303000803030008A7
:1001200003030008510600085D0600086906000880
:100130000303000803030008030300080303000887
:100140002D0600080303000803030008030300084A
:1001500075060008810600088D060008F5350008C0
:100160000303000803030008030300080303000857
:100170000303000803030008030300080000000055
:10018000030300080303000800F002F800F03CF845
:100190000AA090E8000C82448344AAF10107DA45E2
:1001A00001D100F031F8AFF2090EBAE80F0013F0F8
:1001B000010F18BFFB1A43F001031847F44D00006C
:1001C000144E0000103A24BF78C878C1FAD85207FC
:1001D00024BF30C830C144BF04680C6070470000C1
:1001E0000023002400250026103A28BF78C1FBD840
:1001F000520728BF30C148BF0B6070471FB504F0DD
:1002000059FE1FBD10B510BD00F0D0F91146FFF723
:10021000F5FF03F00BFA00F0EEF903B4FFF7F2FF7D
:1002200003BC00F0F5F900002C4B19680868B0E831
:10023000F04F80F30988BFF36F8F4FF0000080F319
:10024000118870470000000008480068006880F3CB
:1002500008884FF0000080F3148862B661B6BFF3DF
:100260004F8FBFF36F8F00DF00BF00BF08ED00E0CE
:10027000DFF80C00016841F470010160704700BFB5
:1002800088ED00E0EFF30980BFF36F8F134B1A681E
:100290001EF0100F08BF20ED108A20E9F04F10600B
:1002A00009B44FF0500080F31188BFF34F8FBFF3B4
:1002B0006F8F04F0ABF84FF0000080F3118809BC99
:1002C00019680868B0E8F04F1EF0100F08BFB0ECD6
:1002D000108A80F30988BFF36F8F704730000020C9
:1002E000EFF3058070470000094880470948004740
:1002F000FEE7FEE7FEE7FEE7FEE7FEE7FEE7FEE7D6
:10030000FEE7FEE704480549054A064B7047000032
:100310000D30000889010008D06F0020D0AF002008
:10032000D08F0020D08F002053EA020C00F06980AB
:100330002DE9F04B4FF00006002B1FBFB3FA83F5F9
:1003400003FA05F424FA05F65E4012BF1643B2FA2A
:1003500082F502FA05F4C5F120051EBF22FA05FC5C
:1003600044EA0C04203556EA044C4FEA144418BF02
:10037000641C4FF000084FF00009904271EB030C31
:1003800039D3002919BFB1FA81F701FA07F6B0FA9B
:1003900080F700FA07F6C7F120071EBF20FA07FC16
:1003A00046EA0C062037B6FBF4FCA7EB0507103F26
:1003B00007F01F0BCBF120060CFA0BFB2CFA06F60C
:1003C00044BFB3460026202FA4BF5E464FF0000B6B
:1003D0005BEA060C08BF4FF0010B19EB0B09ABFBF6
:1003E000027C48EB0608C01B06FB02CC0BFB03CCCF
:1003F00071EB0C01C1E70B46024641464846BDE899
:10040000F08B13B54FF000004FF00001AFF3008008
:10041000BDE81C407047032A40F2308010F0030C06
:1004200000F0158011F8013BBCF1020F624498BF47
:1004300011F801CB00F8013B38BF11F8013BA2F1E4
:10044000040298BF00F801CB38BF00F8013B11F05F
:10045000030300F02580083AC0F0088051F8043BFF
:10046000083A51F804CBA0E80810F5E7121D5CBF6C
:1004700051F8043B40F8043BAFF30080D20724BF9F
:1004800011F8013B11F801CB48BF11F8012B24BF33
:1004900000F8013B00F801CB48BF00F8012B704782
:1004A00010B5203AC0F00B80B1E81850203AA0E80F
:1004B0001850B1E81850A0E81850BFF4F5AF5FEA43
:1004C000027C24BFB1E81850A0E8185044BF18C9F6
:1004D00018C0BDE810405FEA827C24BF51F8043B9D
:1004E00040F8043B08BF7047D20728BF31F8023BF1
:1004F00048BF11F8012B28BF20F8023B48BF00F885
:10050000012B704702F0FF0343EA032242EA024252
:1005100000F02CB84FF0000200B513469446964602
:10052000203922BFA0E80C50A0E80C50B1F1200106
:10053000BFF4F7AF090728BFA0E80C5048BF0CC0B4
:100540005DF804EB890028BF40F8042B08BF704712
:1005500048BF20F8022B11F0804F18BF00F8012B84
:1005600070477047704770474FF000020429C0F091
:10057000128010F0030C3FF4CFAFCCF1040CBCF1AF
:10058000020F18BF00F8012BA8BF20F8022BA1EB27
:100590000C01FFF7C1BF5FEAC17C24BF00F8012B4B
:1005A00000F8012B48BF00F8012B7047754600F09A
:1005B0002BF8AE4605006946534620F007008546F5
:1005C00018B020B5FFF79EFEBDE820404FF00006B2
:1005D0004FF000074FF000084FF0000B21F007012B
:1005E000AC46ACE8C009ACE8C009ACE8C009ACE86E
:1005F000C0098D46704710B50446AFF30080204611
:10060000BDE81040FFF709BE00487047706F00203A
:1006100001491820ABBEFEE7260002007047FEE746
:10062000014800F09BB8000054070020014800F08A
:1006300095B800007C07002010B5012003F021F8D8
:10064000FBE70000014800F03DBB0000C80B0020A4
:10065000014800F037BB0000280C0020014800F0E2
:1006600031BB000050080020014800F02BBB000007
:10067000B0080020014800F025BB0000680B0020F6
:10068000014800F01FBB0000880C0020014800F06A
:1006900019BB0000080B00200168CAB2103A1823E9
:1006A000B2FBF3F2064B9B5CC3656FF30901032AAF
:1006B00002D9091D816500E08165806D70470000E9
:1006C0004C4F000810B5014600208A6A8B694FF034
:1006D000C074002B0ED0B3F5005F1AD062B3012AAC
:1006E0002AD0022A28D0032A03D1C96AC90100D519
:1006F000012010BD1AB1012A06D0022AF9D1C96A17
:10070000C901F6D5012010BDC96AA142FBD1012063
:1007100010BD52B1012A0AD0022A06D0032AF7D10D
:10072000C96AA142F4D1012010BD012010BDC96ADF
:10073000C901FBD5012010BD012010BD704701206B
:1007400000F014BC082000F011BC102000F00EBC1A
:10075000202000F00BBC72B6FEE770472DE9F05F79
:100760000546002428684669D0F804908768D0F8C8
:100770000CA0D0F810B0D0F81880F10748D0F907D5
:1007800014D001218160B80703D5284600F014FA7F
:100790000CE0780702D54FF4006407E0380702D573
:1007A0004FF4805402E0284600F005FAF80516D50B
:1007B00029684FF480708860B80503D5284600F09A
:1007C000FDF90CE0780502D544F4005407E0380543
:1007D00002D544F4804402E0284600F0EEF9F80324
:1007E00016D529684FF480308860B80303D52846B1
:1007F00000F0E6F90CE0780302D544F4004407E089
:10080000380302D544F4803402E0284600F0D7F9DA
:10081000300707D55FEACA6004D544F4007429683C
:100820001020C86070074FF0080707D55FEA0A700C
:1008300004D52868C760284600F0B8F9B00706D587
:100840002868C068800702D0284600F0B0F970061A
:1008500007D55FEACB6004D544F480642968102092
:100860000861B00607D55FEA0B7004D528680761F8
:10087000284600F09DF9F00606D528680069800733
:1008800002D0284600F095F9B00308D55FEAC960A8
:1008900005D5296810204860284600F08BF9F00340
:1008A00007D55FEA097004D528684760284600F03C
:1008B00088F9300446D55FEA497040D5F00504D583
:1008C0005FEAC87001D044F00104B00504D55FEAC6
:1008D000887001D544F00204700504D55FEA4870C1
:1008E00001D544F00404300529D518F0700F26D046
:1008F00008F07000402815D006DC102809D0202808
:100900000AD0302816D10AE050280ED0602811D124
:100910000EE044F008040DE044F010040AE044F056
:10092000200407E044F0400404E044F0800401E0C7
:1009300044F480742868816921F07001816129681C
:1009400004204860002C05D0686A2043686228466D
:10095000FFF703FFBDE8F09F70B50446002C03D0FD
:1009600094F8200010B104E0012070BD204600F092
:100970009DF82068016841F00101016000F0F2FB80
:10098000054605260CE000F0EDFB401B0A2807D9C0
:10099000606A40F40030606284F82060012070BD1D
:1009A00020684068C007EED02068016821F002018D
:1009B000016000F0D7FB05460CE000F0D3FB401BC4
:1009C0000A2807D9606A40F40030606284F8206029
:1009D000012070BD206840688007EED4207E012889
:1009E0003FD02068016821F080010160607E01280D
:1009F0003DD02068016821F040010160A07E0128FF
:100A00003BD02068016821F020010160E07E0128D0
:100A100039D02068016841F010010160207F012871
:100A200037D02068016821F008010160607F01284B
:100A300035D02068016821F004010160D4E9020189
:100A40000843D4E90412114308436168491E08436E
:100A50002168C86100206062012084F82000002025
:100A600070BD2068016841F080010160BEE7206828
:100A7000016841F040010160C0E72068016841F071
:100A800020010160C2E72068016821F010010160C7
:100A9000C4E72068016841F008010160C6E72068EA
:100AA000016841F004010160C8E700002DE9F04150
:100AB00086B00446142101A8FFF72CFD364B374AB7
:100AC000DFF8D08018682168344C03260227401CC8
:100AD000103200254FF0090C414527D1186001283C
:100AE00007D1106840F000701060106800F00070CE
:100AF0000090206840F008002060206800F00800A6
:100B000000900196029703950496CDF814C001A9B0
:100B1000234800F037FA00220521142000F0D6FC0B
:100B2000142000F0C5FC06B0BDE8F081DFF8748049
:100B30004145F8D1116841F080611160116801F000
:100B4000806100911860012807D1106840F00070A2
:100B50001060106800F000700090206840F0020003
:100B60002060206800F00200009060200190029751
:100B700003950496CDF814C001A90B4800F002FAC1
:100B800000220521402000F0A1FC402000F090FC54
:100B9000C9E7000000640040140000203038024023
:100BA000000C02400068004000040240704770479B
:100BB000704770477047704770477047704770477D
:100BC0007047704710B50446002C02D0607910B110
:100BD00006E0012010BD00202071204600F004F83E
:100BE00001206071002010BD08B5006806498842E8
:100BF00008D10648016841F480510160006800F4A2
:100C00008050009008BD00000030024030380240A3
:100C10002DE9F0410446A76D00F0A4FA054694F8CA
:100C200035000026022806D08020606584F83460F4
:100C30000120BDE8F0812068016821F01601016003
:100C40002068416921F080014161206C08B9A06CE5
:100C500020B12068016821F0080101602068016866
:100C600021F0010101600BE000F07CFA401B052837
:100C700006D9202034342062032060702670D8E723
:100C800020680068C007EFD134343F2094F8281062
:100C90008840B8600120607026700020C9E790F895
:100CA0003510022903D080214165012070470521BC
:100CB00080F835100068016821F001010160002012
:100CC000704700002DE9F84304464FF00009CDF8C5
:100CD00000906F484FF416510068B0FBF1F7A56D16
:100CE0002E6894F85C00082202FA00F1314210D01C
:100CF0002068016849070CD5016821F004010160F2
:100D000094F85C0002FA00F1A960606D40F0010007
:100D1000606594F85C104FF0010808FA01F0304269
:100D200008D021684969090604D5A860606D40F0C3
:100D30000200606594F85C1004208840304208D0BE
:100D400021680968890704D5A860606D40F0040037
:100D5000606594F85C1010208840304220D02168F3
:100D6000096809071CD5A8602068016849030CD5EB
:100D70000068000304D4216C91B1204688470FE03D
:100D8000A16C69B1204688470AE00168C90503D40F
:100D9000016821F008010160216C09B120468847F3
:100DA00094F85C102020884030424CD021680968BB
:100DB000C90648D5A86094F8350005280BD02068EE
:100DC0000168490330D50068000328D4616C51B331
:100DD0002046884737E02068016821F0160101604D
:100DE0002068416921F080014161206C08B9A06C44
:100DF00020B12068016821F00801016094F85C10BE
:100E00003F208840A86084F8358084F83490216DB4
:100E100000293BD001B02046BDE8F0430847E16B14
:100E200009B1204688470EE00168C90507D401686A
:100E300021F01001016084F8358084F83490E16B72
:100E400009B120468847606D00281FD0606DC0073B
:100E500014D0052084F835002068016821F00101D4
:100E600001600098401C0090B84203D820680068D8
:100E7000C007F6D184F8358084F83490E16C0029FD
:100E800004D001B02046BDE8F0430847BDE8F88330
:100E90002C0000202DE9F041044600F063F90546DE
:100EA0005CB1022084F83500002684F834602068A4
:100EB000016821F0010101600DE00120BDE8F08131
:100EC00000F050F9401B052805D92020606503205B
:100ED00084F83500F2E720680068C007F0D1216887
:100EE0000A6820480240D4E901031843D4E90335D5
:100EF0002B43184363691843A3691843E3691843F4
:100F0000236A18431043626A042A03D1D4E90B23ED
:100F10001A43104308602068406920F00700656AA2
:100F200029460543012704290DD1A06A0543E06A3B
:100F300048B12046FFF7C6FB28B14020606584F821
:100F400035700120BAE7206845612046FFF7A4FB11
:100F500094F85C203F2191408160666584F835708B
:100F60000020ABE73F8010F07047000010B5044947
:100F70000A68024202D00860FFF7F6FF10BD0000C9
:100F8000143C01402DE9F84F0022DFF89C914FF00E
:100F9000010803274FF00F0C09F1040AA9F1040B13
:100FA00008FA02F50B682B40AB426ED10C7904F0C5
:100FB0000304012C01D0022C15D18668540007FAD5
:100FC00004FE26EA0E06D1F80CE00EFA04FE4EEA04
:100FD000060EC0F808E04468AC430D79C5F300156F
:100FE0009540254345600C79E443A40708D0C568C3
:100FF000540007FA04F6B5438E68A6402E43C66037
:101000000C7904F00304022C11D1D40800EB8406FF
:10101000356A5407E40E0CFA04FE25EA0E05D1F8F1
:1010200010E00EFA04FE4EEA050EC6F820E0056850
:10103000540007FA04F6B5430E7906F00306A640FD
:101040002E4306604C6814F4403F67D0374C256847
:1010500045F480452560246804F480440094344CB1
:1010600022F003052E19D6F8085894074FEA147E8B
:101070000CFA0EF4A5432F4CA04201D1002424E029
:101080002D4CA04202D101241FE047E02B4CA0428E
:1010900001D1022419E02A4CA04201D1032414E01A
:1010A000284CA04201D104240FE0274CA04201D1DA
:1010B00005240AE0254CA04201D1062405E0244C79
:1010C000A04201D1072400E0082404FA0EF42C43C6
:1010D000C6F80848D9F800409C434D68ED0200D599
:1010E0001C43C9F80040DAF800409C434D68AD024B
:1010F00000D51C43CAF80040DBF800409C434D6813
:10110000AD0300D51C43CBF80040074D083D2C68CB
:101110009C434E68F60300D51C432C60521C102AD9
:10112000FFF43EAFBDE8F88F083C01404438024070
:10113000003001400000024000040240000802406C
:10114000000C02400010024000140240001802404F
:10115000001C0240002A01D08161704709048161AE
:1011600070470000014880687047000020000020A0
:1011700070B50446002C04D094F83D00002510B151
:1011800006E0012070BD84F83C50204600F0BCF819
:10119000242084F83D002068016821F001010160ED
:1011A0002068016841F4004101602068016821F471
:1011B0000041016000F086FA4F4B6168994203D804
:1011C0004E49884203D304E04D49884201D20120B0
:1011D00070BD4C49B0FBF1F12268566826F03F061D
:1011E0000E43566062689A4201D8491C07E04FF4EA
:1011F000967251434FF47A72B1FBF2F1491C2268A6
:10120000166A26F03F06314311626168994210D890
:101210004900401EB0FBF1F2521CC2F30B02042A3B
:1012200001D2042022E0B0FBF1F0401CC0F30B001F
:101230001CE0A268F2B301EBC10303EB0116431EED
:10124000B3FBF6F35B1C43F480431B0549D092B318
:1012500001EBC10202EB0111401EB0FBF1F0401C9A
:10126000C0F30B0040F4804040F400402168CA699C
:101270004CF6FF739A431043C861D4E90710014349
:101280002068026822F0C00211430160D4E9030122
:1012900001432068826848F2FF339A43114381601A
:1012A000D4E9051001432068C26822F0FF0211430F
:1012B000C16001E00EE016E02068016841F0010124
:1012C00001602564202084F83D00256384F83E50A9
:1012D000002070BD01EB4106431EB3FBF6F35B1C1F
:1012E000B3E70120C2E701EB4101401EB0FBF1F082
:1012F000401CC0F30B00B7E7A086010080841E00ED
:1013000000093D0040420F00F0B587B004461421AB
:1013100002A8FFF7FFF81D492068884233D11C4816
:10132000016841F004010160016801F004010191CC
:10133000016841F001010160006800F001000190C6
:101340004FF400700290122703970124049403269F
:1013500005960425069502A90E48FFF713FE200204
:101360000290039704940596069502A90A48FFF790
:1013700009FE07481030016841F40001016000686F
:1013800000F40000019007B0F0BD0000005C0040D8
:1013900030380240000802400000024002488168E4
:1013A00002781144816070472000002010B50B487E
:1013B000016841F400710160016841F480610160DD
:1013C000016841F480710160032000F09FF80F2054
:1013D00000F006F800F050F8002010BD003C02407C
:1013E00030B587B0054600241F48016841F001016F
:1013F0000160006800F00100009001A902A800F05F
:101400003DF90598B0B100F05DF940001749B0FB17
:10141000F1F1491E16484FF08042026040F2E73277
:10142000C260416004618460846100F0B3FC0446E2
:101430001CB115E000F046F9E8E70D4800F040FD6A
:1014400004466CB91C2000F033F8102D07D200229E
:1014500029461C2000F03AF80648056000E0012407
:1014600007B0204630BD00004038024040420F0027
:10147000E80C00202400002082B00C48016841F4F0
:1014800080410160006800F4804001900748001F1F
:10149000016841F080510160006800F080500190C7
:1014A00000220F21901E02B000F010B84438024014
:1014B000002809DB00F01F02012191404009800053
:1014C00000F1E020C0F8001170470000F0B40D46B4
:1014D0000D4B1B68C3F30223C3F10704042C00D98E
:1014E0000424191D072901D2002300E0DB1E012678
:1014F00006FA04F1491E294099409E40761E164086
:101500003143F0BC02F07DB80CED00E000F00701C3
:10151000054A10684FF6FF03184040EA01200349CE
:1015200008431060704700000CED00E00000FA0571
:101530002DE9F04704460D46002C13D0DFF8289122
:10154000D9F80000EFB200F00700A8420CD289F8E9
:101550000070D9F8000000F00700A84204D0012074
:10156000BDE8F0870120FBE72068404E810712D5D7
:10157000400703D5306840F4E05030602078000721
:1015800003D5306840F4604030603068A16820F0D6
:10159000F000084330602078C00731D033496068DC
:1015A0000839012808D002280BD0032809D009687F
:1015B00089070BD40120D3E70968890306D40120E9
:1015C000CEE70968890101D40120C9E7316821F01B
:1015D000030101433160FFF7C5FD804641F2883ABF
:1015E00007E0FFF7BFFDA0EB0800504501D903203D
:1015F000B6E73068616800F00C00B0EB810FF0D105
:10160000D9F8000000F00700A84209D989F8007055
:10161000D9F8000000F00700A84201D001209FE7A0
:101620002078400705D53068E16820F4E050084391
:1016300030602078000706D53068216920F46040CA
:1016400040EAC100306000F05DF83168084AC1F33B
:101650000311515CC8400749086007480068FFF75C
:10166000BFFE00207CE70000003C0240083802403A
:10167000544F00082C000020240000200F2202609C
:101680000B4A136803F003034360136803F0F0038D
:101690008360136803F4E053C360126802F460428D
:1016A000D20802610348006800F007000860704734
:1016B00008380240003C02400148006870470000C2
:1016C0002C00002000B5FFF7F7FF04490968044A21
:1016D000C1F38221515CC84000BD000008380240BF
:1016E000644F000800B5FFF7E7FF04490968044AA2
:1016F000C1F34231515CC84000BD000008380240CF
:10170000644F000810B51748006810F00C01164827
:1017100016D0164B042912D0082911D1114C241FC0
:10172000216801F03F02216849020AD52068C0F310
:101730008810A0FB03010023FEF7F6FD09E0184620
:1017400010BD21680023C1F38811A1FB0001FEF741
:10175000EBFD2168C1F30141491C4900B0FBF1F0E8
:1017600010BD0000083802400024F400001BB70040
:101770002DE9F84F0446002C13D02078DFF8A08321
:10178000C007A8F1040556D008F104000168C1F3B0
:10179000810101290CD00068C0F38100022803D028
:1017A0000DE00120BDE8F88FD8F80000400206D512
:1017B000286880033FD5606870BB0120F2E760684D
:1017C000B0F5803F10D0B0F5A02F12D0286820F4DB
:1017D00080302860286820F4802028606068E0B1AC
:1017E000FFF7C0FC064614E0286840F4803028600B
:1017F000F4E7286840F480202860286840F48030AE
:101800002860EBE7FFF7AEFC801B642801D90320BA
:10181000C8E728688003F5D50DE0FFF7A3FC06466E
:1018200006E0FFF79FFC801B642801D90320B9E77D
:1018300028688003F5D42078BA4F80074FF000095C
:1018400048D5B748001D016811F00C0F08D000689A
:10185000C0F38100022813D1D8F8000040020FD451
:101860002868800704D5E068012801D0012099E7A5
:101870002868216920F0F80040EAC100286029E0CA
:10188000E068B8B101203860FFF76CFC064606E05E
:10189000FFF768FC801B022801D9032082E7286833
:1018A0008007F5D52868216920F0F80040EAC100DA
:1018B00028600FE0C7F80090FFF754FC064606E0EA
:1018C000FFF750FC801B022801D903206AE7286833
:1018D0008007F5D42078000729D5DFF844A2924884
:1018E00061690AF1700A89B101210160FFF73AFCD0
:1018F000064606E0FFF736FC801B022801D90320CC
:1019000050E7DAF800008007F4D510E0C0F8009046
:10191000FFF728FC064606E0FFF724FC801B0228A0
:1019200001D903203EE7DAF800008007F4D42078DC
:10193000400778D54FF0000A79483C300068C00075
:101940000BD477483C30016841F080510160006859
:1019500000F0805000904FF0010ADFF8D0B1DBF8C2
:101960000000C00514D4DBF8000040F48070CBF810
:101970000000FFF7F7FB064606E0FFF7F3FB801BCE
:10198000022801D903200DE7DBF80000C005F4D5DB
:10199000634EA0686C3601280FD0052812D030683D
:1019A00020F001003060306820F004003060A06852
:1019B000F8B1FFF7D7FB834617E0306840F001002D
:1019C0003060F4E7306840F004003060306840F088
:1019D00001003060EBE7FFF7C5FBA0EB0B0141F224
:1019E0008830814201D90320DCE630688007F2D5D7
:1019F00010E0FFF7B7FB834609E0FFF7B3FBA0EB6E
:101A00000B0141F28830814201D90320CAE63068D7
:101A10008007F2D4BAF1010F05D141483C3001688A
:101A200021F080510160A069C0B33D49091D0968DA
:101A30004FF0FF36C1F38101022946D0022805D0BC
:101A4000C7F86090FFF78EFB04463AE0C7F8609055
:101A5000FFF788FB814607E0FFF784FBA0EB090056
:101A6000022801D903209DE628688001F4D4D4E936
:101A700007010843616AA26A890106EB520241EA42
:101A80000241084394F82C1040EA0160C8F80000B5
:101A900001203866FFF766FB044607E03DE0FFF7EC
:101AA00061FB001B022801D903207BE62868800126
:101AB000F5D532E0FFF756FB001B022801D90320C1
:101AC00070E628688001F5D427E0012823D0D8F8F3
:101AD0000000E26900F4800191421AD1226A00F00C
:101AE0003F01914215D147F6C071626A0140B1EBE6
:101AF000821F0ED1A26A00F4403106EB5202B1EB14
:101B0000024F06D194F82C1000F07060B0EB016F1A
:101B100003D0012046E6012044E6002042E6000012
:101B20000438024000004742800E474200700040E7
:101B300070B50446002C09D0606A002540B12561CB
:101B40006561A56294F8510040B10CE0012070BDC0
:101B50006068B0F5827FF4D0E561F2E784F8505018
:101B6000204600F045F8022084F851002068016802
:101B700021F040010160A088218900F4827001F405
:101B800004410843A18901F400610843217C01F06C
:101B900002010843217D01F001010843218B01F47A
:101BA00000710843217F01F03801084394F82010A8
:101BB00001F080010843218D01F4005108432168A0
:101BC0000860A069042101EA104094F8241001F093
:101BD00010010843216848602068C16921F4006150
:101BE000C1616565012084F85100002070BD0000CE
:101BF0002DE9F04387B00546142102A8FEF78AFCC0
:101C00003949286888426CD100263848016841F477
:101C100080510160006800F480500190334814380E
:101C2000016841F002010160016801F002010191C7
:101C3000016841F001010160006800F001000190BD
:101C4000182002904FF00208CDF80C804FF00109E7
:101C5000CDF81090032405940527069702A924487F
:101C6000FFF790F980200290CDF80C80CDF810900D
:101C70000594069702A91F48FFF784F91F4C1E48D8
:101C800020604FF0C068C4F80480A660E6600715C5
:101C900027616661A661E6614FF4403020626662AA
:101CA0002046FFF7F7F808B1FEF755FDEC64A56391
:101CB0001148124C183060342060C4F80480402071
:101CC000A060E66027616661A661E661C0022062ED
:101CD00066622046FFF7DEF808B1FEF73CFDAC6413
:101CE000A56307B0BDE8F0830030014044380240EE
:101CF00000040240000002404064024050080020FE
:101D00007047704770B590F83C20012A31D0012609
:101D100080F83C60022280F83D2002685468936895
:101D200024F070050C682C435460134C0268A242E6
:101D300014D0B2F1804F11D0104CA2420ED0104CF2
:101D4000A2420BD00F4CA24208D00F4CA24205D0A9
:101D50000E4CA24202D00E4CA24204D123F08003CA
:101D60004968194391603C304670002101700020A1
:101D700070BD022070BD0000000001400004004062
:101D800000080040000C00400004014000400140F9
:101D90000018004010B50446002C03D094F83D0014
:101DA00010B107E0012010BD002084F83C0020465F
:101DB00000F016F8022084F83D00211D206801F093
:101DC0003FF901203D3460726070A070E0702071B6
:101DD0006071A071E07120722070002010BD0000C1
:101DE00010B586B00446142101A8FEF793FB2E4AD5
:101DF00020682E49904228D1086840F0020008600F
:101E0000086800F00200009028481038016841F08E
:101E100004010160006800F004000090901501903A
:101E2000022002900121039103210491059001A950
:101E30001F48FFF7A7F8002205211D20FFF746FBEA
:101E40001D20FFF735FB06B010BD1A4A904208D19D
:101E5000086840F004000860086800F00400009082
:101E6000F1E7154A904210D1086840F00800086078
:101E7000086800F008000090002205213220FFF7DA
:101E800025FB3220FFF714FBDDE70C498842DAD14D
:101E90000648001D016841F400310160006800F44B
:101EA00000300090CFE700000004004040380240BE
:101EB0000008024000080040000C004000440140BF
:101EC00090F83D10012901D001207047022180F8CF
:101ED0003D100168CA6842F00102CA6000681449F6
:101EE000884214D0B0F1804F11D0124988420ED0F0
:101EF000114988420BD01149884208D010498842C4
:101F000005D01049884202D00F49884209D1816822
:101F100001F00701062908D0016841F001010160C4
:101F200003E0016841F001010160002070470000FA
:101F3000000001400004004000080040000C004088
:101F400000040140004001400018004070B5044604
:101F5000002594F83C00012817D0012684F83C6045
:101F6000022084F83D002068826822F0770222F483
:101F70007F4282600868502838D00DDC202853D07A
:101F800005DC90B3102811D14EE0022070BD30283E
:101F90004AD040280AD13DE0602831D070280CD0CA
:101FA000B0F5805F03D0B0F5005F12D001253C345E
:101FB000667000202070284670BDCB68D1E90121F1
:101FC000206801F0ABF82068816841F077018160FA
:101FD000EDE7CB68D1E90121206801F09FF8206886
:101FE000816841F480418160E1E71DE0CA68496889
:101FF000206801F075F95021206801F099F8D6E7C2
:10200000CA684968206801F07CF96021206801F005
:102010008FF8CCE7CA684968206801F061F940216F
:10202000206801F085F8C2E722680146104601F0F9
:102030007FF8BCE770472DE9F04104462068C56889
:1020400006694FF00007B10714D5A90712D5F91E8C
:1020500001610120207720688069800703D0204635
:10206000FFF7E8FF05E0204600F0C6F8204600F044
:1020700056F92777700717D5680715D521686FF0CF
:1020800004000861022020772068806910F4407FF6
:1020900003D02046FFF7CEFF05E0204600F0ACF865
:1020A000204600F03CF92777300716D5280714D5CD
:1020B00021686FF008000861042020772068C0695B
:1020C000800703D02046FFF7B5FF05E0204600F06B
:1020D00093F8204600F023F92777F00617D5E80695
:1020E00015D521686FF0100008610820207720685E
:1020F000C06910F4407F03D02046FFF79BFF05E046
:10210000204600F079F8204600F009F92777F0071B
:1021100008D0E80706D021686FF00100086120466A
:1021200000F0FEF8300608D5280606D521686FF0C5
:10213000800008612046FFF7E3FD700608D56806B9
:1021400006D521686FF040000861204600F0EFF8E6
:10215000B0060AD5A80608D521686FF020000861EE
:102160002046BDE8F041FFF7CCBDBDE8F08100009E
:1021700030B587B00446142102A8FEF7CBF9194DFB
:1021800020681949022201240323A84213D10868B8
:1021900040F008000860086800F008000190500353
:1021A0000290039204940593069202A90F48FEF749
:1021B000E9FE07B030BD0E4DA842FAD1086840F0E4
:1021C00020000860086800F0200001904020029084
:1021D000039204940593069302A90648FEF7D2FEE3
:1021E000E7E700000008004030380240000C0240E1
:1021F0000044014000140240704770B504460D468B
:10220000002694F83C0001280FD0012084F83C00FF
:102210006AB1042A1FD0082A32D00C2A44D00126E1
:10222000002084F83C00304670BD022070BD294675
:10223000206800F085FF2068816941F00801816114
:102240002068816921F004018161206881692A691F
:1022500011438161E4E72946206800F0A5FF20686A
:10226000816941F4006181612068816921F48061A4
:102270008161206881692A6941EA02218161CFE791
:102280002946206800F0CAFF2068C16941F00801B2
:10229000C1612068C16921F00401C1612068C16980
:1022A0002A691143C161BBE72946206800F0EEFFAF
:1022B0002068C16941F40061C1612068C16921F4ED
:1022C0008061C1612068C1692A6941EA0221C16156
:1022D000A6E710B50446002C03D094F83D0010B1D9
:1022E00007E0012010BD002084F83C00204600F0EB
:1022F00015F8022084F83D00211D206800F0A0FEA2
:1023000001203D3460726070A070E07020716071D7
:10231000A071E07120722070002010BD70477047DE
:102320000068B0F1804F01D1FFF738B870477047AF
:1023300070477047F8B5044622681068D168536941
:1023400000F00F06002E08D1850606D58D0604D5AF
:102350002046BDE8F84001F022B80025002E66D0E6
:1023600003F0010601F49077374360D0C20705D02F
:10237000CA0503D5626C42F001026264420705D5CA
:10238000DA0703D0626C42F002026264820705D56C
:10239000DA0703D0626C42F004026264020707D5D8
:1023A00001F02002324303D0626C42F00802626402
:1023B000626C002A31D0800604D5880602D52046FA
:1023C00000F0EDFF20684069C0F38010616C0907E0
:1023D00000D438B3204600F0AEFF206840694006C4
:1023E0001CD52068143050E8001F21F0400140E85F
:1023F0000012002AF5D1E06B60B159490165E06B2C
:10240000FEF74DFC002808D0E06B016D01B0BDE87F
:10241000F04008472046FFF78CFFF8BD2046FFF745
:1024200088FFF8BD2046FFF784FF6564F8BD236B85
:10243000012B7DD1C3067BD5CB067FD510685068B4
:10244000009050694FF0200340064FF0020644D53B
:10245000E16B0868406880B20028E7D0A28D824214
:10246000E4D9E085C869B0F5807F2DD020680C30B4
:1024700050E8001F21F4807140E80012002AF5D1D5
:102480002068143050E8001F21F0010140E80012DC
:10249000002AF5D12068143050E8001F21F04001D7
:1024A00040E80012002AF5D184F842302563206804
:1024B0000C3050E8001F21F0100140E80012002A03
:1024C000F5D1E06BFEF7A4FB6663A08DE18D401AA9
:1024D00081B22046FFF72CFFF8BDA08DE18D401A98
:1024E00081B2E08D0028F7D00029F5D020680C30AB
:1024F00050E8002F22F4907240E80027002FF5D119
:102500002068143050E8002F22F0010240E8002734
:10251000002FF5D184F84230256320680C3050E854
:10252000002F22F0100240E80023002BF5D100E03C
:1025300004E066632046FFF7FBFEF8BD020606D501
:102540000A0604D52046BDE8F84001F017B8400659
:10255000F3D54806F1D52046BDE8F84000F012BF9B
:102560002733000870B50446002C04D094F84100CD
:10257000002510B106E0012070BD84F840502046CF
:1025800000F024F8242084F841002068C16821F478
:102590000051C160204600F067FF2068016921F406
:1025A000904101612068416921F02A014161206860
:1025B000C16841F40051C1606564202084F8410085
:1025C00084F842006563002070BD00002DE9F04FE3
:1025D00087B00446142102A8FDF79CFF90488F4A5B
:1025E000143823688E490227002506154FF003088A
:1025F0004FF0070A4FF0400B4FF0006993426BD148
:102600000A6842F010020A60096801F010010191A5
:10261000016841F002010160016801F002010191CD
:10262000016841F001010160006800F001000190C3
:102630008020029003970495CDF81480CDF818A05F
:1026400002A97848FEF79EFC70100290039704954B
:10265000CDF81480CDF818A002A97348FEF792FCBB
:10266000734F72483860C7F80490C7F808B0FD602F
:102670003E617D61BD61FD614FF4403038627D6235
:102680003846FEF707FC08B1FEF765F8A763BC63A0
:102690006648674F303860373860C7F80490BD60CF
:1026A000FD603E617D61BD61FD614FF400303862C7
:1026B0007D623846FEF7EEFB08B1FEF74CF8E763A3
:1026C000BC63002205212520FEF700FF2520FEF730
:1026D000EFFE07B0BDE8F08FDFF858C10122634577
:1026E0003DD14F49091F0B6843F480230B600968F3
:1026F00001F480210191016841F00401016000684A
:1027000000F0040001904FF440600290039704929F
:10271000CDF81480CDF818A002A94748FEF732FC86
:10272000434F4648C0373860C7F80490BD60FD602D
:102730003E617D61BD61FD613D627D623846FEF7AF
:10274000A9FB08B1FEF707F8E763BC630022052187
:102750002720FEF7BBFE2720FEF7AAFEB9E7DFF829
:10276000E0C06345B5D10B6843F020030B600968F6
:1027700001F020010191016841F040010160006811
:1027800000F0400001904FF48440029003970492BF
:10279000CDF814800820069002A92A48FEF7F2FB23
:1027A0002248294F903838604FF02068C7F80480DD
:1027B000BD60FD603E617D61BD61FD614FF4003033
:1027C00038627D623846FEF765FB08B1FDF7C3FF4E
:1027D000E763BC6315481C4F183860373860C7F88A
:1027E0000480C7F808B0FD603E617D61BD61FD6198
:1027F0004FF4403038627D623846FEF74BFB08B13B
:10280000FDF7A9FFA763BC63002205214720FEF75F
:102810005DFE4720FEF74CFE5BE700000010014024
:10282000443802400004024000000240B864024004
:10283000080B0020004800400008024028600240C9
:102840000014014000180240280C00207047704717
:10285000FEE710B5012000F014FFFBE710B50120E2
:1028600000F00FFFFBE7000010B50F480D490160B5
:102870000321416000218160C1604FF41022026198
:102880004FF400124261017641768176C17601777C
:102890004177FEF761F8002803D0BDE81040FDF74E
:1028A0005ABF10BD006400405407002010B50F4807
:1028B0000D4901600321416000218160C1604FF436
:1028C000102202614FF40012426101764176817656
:1028D000C17601774177FEF73FF8002803D0BDE8C5
:1028E0001040FDF738BF10BD006800407C07002095
:1028F00010B50749054808600846FEF763F9002847
:1029000003D0BDE81040FDF726BF10BD00300240E7
:102910001800002008B52548016841F480010160D5
:10292000016801F480010091016841F40011016027
:10293000006800F400100090002205210C20FEF732
:10294000C5FD0C20FEF7B4FD002205213920FEF75D
:10295000BDFD3920FEF7ACFD002205213A20FEF72F
:10296000B5FD3A20FEF7A4FD002205213B20FEF72D
:10297000ADFD3B20FEF79CFD002205214420FEF723
:10298000A5FD4420FEF794FD002205214520FEF719
:102990009DFD4520FEF78CFD002205214620FEF717
:1029A00095FDBDE808404620FEF782BD3038024064
:1029B00010B5A4B01C221C491DA8FDF771FD002113
:1029C0001DA800F06BFE194C20601C2216491C311A
:1029D00016A8FDF765FD002116A800F05FFE6060F7
:1029E0001C22114938310FA8FDF75AFD00210FA80C
:1029F00000F054FEA0601C220B49543108A8FDF7DA
:102A00004FFD002108A800F049FEE0601C220649A5
:102A1000703101A8FDF744FD002101A800F03EFE41
:102A2000206124B010BD0000C04E0008000000204E
:102A30002DE9F04F87B0142102A8FDF76BFD0026A9
:102A40007A48016841F010010160016801F010014D
:102A50000191016841F002010160016801F0020189
:102A60000191016841F040010160016801F04001FD
:102A70000191016841F001010160016801F001016B
:102A80000191016841F008010160016801F008014D
:102A90000191016841F004010160016801F0040145
:102AA0000191016841F080010160016801F080013D
:102AB0000191016841F020010160006800F02000F0
:102AC0000190DFF86CB1012240215846FEF742FB2D
:102AD0004FF4E058002241465648FEF73BFB0122E6
:102AE00010215548FEF736FB002240215248FEF7E0
:102AF00031FB012211465148FEF72CFB03270297B8
:102B000003960225049502A94D48FEF73BFA802062
:102B100002900396049502A94A48FEF733FA4FF053
:102B20004009CDF80890012403940494059502A966
:102B30005846FEF727FACDF80880039404950597C8
:102B400002A93C48FEF71EFA4FF0090ACDF808A08A
:102B50004FF40418CDF80C80049402A95846FEF7EF
:102B600011FA600202900396049502A93148FEF71B
:102B700009FA1020029003940494059502A92E48A6
:102B8000FEF700FA30200290CDF80C80049402A9E0
:102B90002C48FEF7F7F94FF4205002900395049467
:102BA0000597069402A92648FEF7ECF9CDF808909F
:102BB000112003900496059602A91F48FEF7E2F93A
:102BC000029403940494059502A91C48FEF7DAF9CF
:102BD000B8030290039504940597CDF818A002A9B4
:102BE0001648FEF7CFF9002205210620FEF76EFCFD
:102BF0000620FEF75DFC002205210920FEF766FC99
:102C00000920FEF755FC002205210A20FEF75EFC94
:102C10000A20FEF74DFC002205211720FEF756FC86
:102C20001720FEF745FC07B0BDE8F08F30380240B2
:102C300000180240001C0240000002400004024054
:102C4000001002400008024010B50D480B49016019
:102C50000C49416000218160C1604FF480420261F3
:102C600041618161C1610162FEF782FA002803D0EF
:102C7000BDE81040FDF76FBD10BD0000005C0040D6
:102C8000A4070020801A060010B510480E49016004
:102C90004FF48271416000218160C16002220261B3
:102CA00001224261520282613822C26101624162A4
:102CB00081620A21C162FEF73BFF002803D0BDE814
:102CC0001040FDF748BD10BD00300140F80700205E
:102CD00010B588B01C2101A8FDF71CFC144813494D
:102CE00001600024446084604FF6FF71C16004619C
:102CF0008461FFF74FF808B1FDF72DFD0C48FFF791
:102D0000E8FA08B1FDF727FD6020019002940394D2
:102D10000594002201A90648FFF76FFA08B1FDF7F4
:102D20001AFD0348FFF724FA08B010BD0044014023
:102D3000E809002010B586B000240294039404949E
:102D400005940094019414481249016042F2CF01A5
:102D500041608460C721C16004618461FFF71AF893
:102D600008B1FDF7F8FC4FF48050029002A90A4820
:102D7000FFF7ECF808B1FDF7EEFC0094019469460A
:102D80000548FEF7BFFF002801D0FDF7E4FC06B0C0
:102D900010BD0000000400401009002010B58EB0E6
:102DA00000240A940B940C940D94089409941C210B
:102DB00001A8FDF7AFFB1E481C4901604460846018
:102DC00045F20721C16004618461FEF7E3FF08B1A9
:102DD000FDF7C1FC4FF480500A900AA91448FFF790
:102DE000B5F808B1FDF7B7FC1148FFF772FA08B162
:102DF000FDF7B1FC0894099408A90D48FEF782FF7D
:102E000008B1FDF7A8FC602001900294039405949A
:102E1000082201A90648FFF7F0F908B1FDF79BFC6D
:102E20000348FFF7A5F90EB010BD000000080040F0
:102E30005809002010B586B000240294039404942D
:102E400005940094019414481249016042F2CF01A4
:102E5000416084601321C16004618461FEF79AFFC0
:102E600008B1FDF778FC4FF48050029002A90A489F
:102E7000FFF76CF808B1FDF76EFC00940194694609
:102E80000548FEF73FFF002801D0FDF764FC06B0BF
:102E900010BD0000000C0040A009002010B50C4837
:102EA0000A4901604FF4E131416000218160C16055
:102EB00001610C2242618161C161FFF753FB00286F
:102EC00003D0BDE81040FDF746BC10BD0010014026
:102ED000300A002010B50C480A4901600B494160D6
:102EE00000218160C16001610C2242618161C16188
:102EF000FFF738FB002803D0BDE81040FDF72BBCDE
:102F000010BD000000480040780A0020A0860100A3
:102F100010B50C480A4901604FF4E13141600021CD
:102F20008160C16001610C2242618161C161FFF772
:102F300019FB002803D0BDE81040FDF70CBC10BD04
:102F400000140140C00A0020FEE7FEE710B5502043
:102F500080F31188BFF34F8FBFF36F8F01F0E8FD4F
:102F600018B104494FF080500860002080F31188A8
:102F700010BD000004ED00E030B593B0302107A88B
:102F8000FDF7C8FA142102A8FDF7C4FA00251D4870
:102F9000016841F080510160006800F080500190AC
:102FA0001948016841F480410160006800F48040E4
:102FB0000190012007900004089002240D948001E4
:102FC0000E9006200F90A8201090119407201290C8
:102FD00007A8FEF7CDFB08B1FDF7BDFB0F2002905F
:102FE000039404954FF4A05005904FF48050069040
:102FF000052102A8FEF79CFA002801D0FDF7ABFBE3
:1030000013B030BD403802400070004002480168F3
:1030100041F470010160704788ED00E00148FFF75E
:103020000AB80000E80C00200148FFF704B80000CF
:10303000100900200148FEF7FEBF0000A009002093
:103040002DE9F04102682A4D2A4E2B4FDFF8ACC023
:103050002B4B4FF08048A84209D0404507D0B042E2
:1030600005D0B84203D0604501D0984203D122F088
:1030700070044A682243A8421BD0404519D0B04290
:1030800017D0B84215D0604513D0984211D01D4CCE
:10309000A0420ED01C4CA0420BD01C4CA04208D029
:1030A0001B4CA04205D01B4CA04202D01A4CA0429F
:1030B00003D122F44074CA6822434C6922F0800292
:1030C000224302608A68C2620A688262A84201D012
:1030D000984201D109690163012141610169C90770
:1030E00003D0016921F001010161BDE8F081000018
:1030F000000001400004004000080040000C0040B7
:1031000000040140004001400044014000480140EB
:1031100000180040001C00400020004010B58468EA
:1031200024F47F4442EA03220A432243826010BD12
:10313000826822F070020A4342F007018160704702
:10314000F0B5056A026A22F00102026243688269F0
:1031500022F0700222F003020C68144325F00205ED
:103160008A682A430E4E0F4FB04201D0B84205D1B3
:1031700022F00805CA682A4322F00402B04201D0B6
:10318000B84207D123F4807323F400734D691D43C3
:103190008B692B4343608461496841630262F0BDDF
:1031A0000000014000040140F0B5026A036A23F008
:1031B000100303624368846924F4E04424F44074F7
:1031C0000D6844EA052422F020028D6842EA0512C7
:1031D000104D114EA84201D0B04206D122F080021B
:1031E000CF6842EA071222F04002A84201D0B04262
:1031F00009D123F4806323F400634D6943EA850316
:103200008D6943EA85034360846149688163026292
:10321000F0BD00000000014000040140F0B5026A6A
:10322000036A23F4807303624368C46924F0700462
:1032300024F003050C682C4322F400728D6842EAE6
:103240000522104D104EA84201D0B04206D122F402
:103250000062CF6842EA072222F48062A84201D0CD
:10326000B04209D123F4805323F400534D6943EA5B
:1032700005138D6943EA05134360C4614968C1635E
:103280000262F0BD000001400004014030B5036A55
:10329000026A22F4805202624268C46924F4E04463
:1032A00024F440740D6844EA052423F400538D6827
:1032B00043EA0533084DA84202D0084DA84204D184
:1032C00022F480424D6942EA85124260C461496835
:1032D0000164036230BD00000000014000040140B1
:1032E00010B5036A046A24F001040462846924F0BE
:1032F000F00444EA021423F00A020A4384610262E1
:1033000010BD10B5036A046A24F0100404628469D5
:1033100024F4704444EA023223F0A00343EA01118A
:103320008261016210BD10B5806B0021C185C1842E
:10333000FEF7FFFF10BD01680C3151E8002F22F4A9
:10334000907241E80023002BF5D10168143151E857
:10335000002F22F0010241E80023002BF5D1016B80
:10336000012909D101680C3151E8002F22F0100227
:1033700041E80023002BF5D1202180F842100021E4
:103380000163704710B50168CA6822F04002CA6044
:10339000202180F84110FFF75AFA002010BD08B52F
:1033A00090F84210222901D0022008BD82684FF413
:1033B00080539A4201D1016921B1816A9A421DD09C
:1033C00052B10BE0816A02685268C2F308020A80B7
:1033D000816A891C816209E002697AB102685268D7
:1033E00002F07F020A70816A491C8162C18D491E08
:1033F0000904090CC18505D0002008BD0268526887
:103400000A70F0E70168CA6822F02002CA60016809
:10341000CA6822F48072CA6001684A6922F0010217
:103420004A61202180F8421000214163026B012A89
:1034300003D0FFF70BFA002008BD016301680C31CF
:1034400051E8002F22F0100241E80023002BF5D1B3
:1034500001680A68D20602D50A6849680091818D20
:10346000FEF766FFE7E700002DE9F041044620681B
:103470000169E26821F4405111430161A1682069AA
:10348000E26901436069104301432068C26849F260
:103490000C639A430A43C26020684169A26921F41F
:1034A00040711143416133492068884202D032495A
:1034B000884202D1FEF716F901E0FEF703F9E1694F
:1034C0000023192764253226B1F5004F28D0616802
:1034D0008B0F8A00A0FB0701FCF726FF0146B0FB1B
:1034E000F5F07A42504301EB800006EB0010B0FB90
:1034F000F5F000F0F002B1FBF5F002EB0012B1FBC9
:10350000F5F07B42584301EB800006EB0010B0FB66
:10351000F5F0216800F00F0010448860BDE8F081EC
:1035200061684A18A0FB07015B41FCF7FDFE0146FC
:10353000B0FBF5F00201B1FBF5F06FF01803584352
:1035400001EB800006EBC000B0FBF5F000F0F800E6
:1035500002EB4002B1FBF5F0584301EB800006EBB3
:10356000C000B0FBF5F0216800F00700104488604F
:10357000D4E70000001001400014014090F8411011
:10358000212901D0022070478168B1F5805F01D107
:10359000016961B1016A4A1C0262026809785160DE
:1035A000C18C491E0904090CC1840AD013E0016AC8
:1035B00002680988C1F308015160016A891C01622F
:1035C000EEE70168CA6822F08002CA600068C1683C
:1035D00041F04001C1600020704700000148FEF743
:1035E000A9BE0000300A00200148FEF7A3BE00007B
:1035F000780A00200148FEF79DBE0000C00A0020A6
:10360000FEE70907090E002804DB00F1E02080F83E
:103610000014704700F00F0000F1E02080F8141D46
:10362000704710B5012000F02CF8FBE7FDF7BEFE57
:10363000FFF7A2FCFFF7FCF9FFF76CF9FFF704FBBB
:10364000FFF722FBFFF744FBFFF744FCFFF70CF901
:10365000FFF72CF9FFF76EFBFFF75AFCFFF71EFC94
:10366000FFF746F9FFF79AFBFFF7E4FBFFF7A0F936
:1036700000F00FF8FEE701460020842900D0C81CA6
:10368000704710B5002800D1012000F001FE002095
:1036900010BD10B500F06AFE002010BD7FB50446D5
:1036A0000D466169B4F90800002910D0A16971B113
:1036B000FFF7E1FFD4E90521CDE901210090D4E92C
:1036C00000102B46226901F0F1F9039010E0FFF79A
:1036D000D2FF03A9CDE90001208A2B4682B2D4E9AA
:1036E000001001F0B1F9012802D0002004B070BD33
:1036F0000398FBE72DE9F04104460F46194EF568A3
:103700003168002081F852003068001D00F08BFC09
:1037100038B9306890F82C10012088403169814315
:103720003161601C07D137B13168BDE8F041091D36
:103730000D4800F0C7BC2C4430684460AC4206D24F
:103740003168B06B091DBDE8F04100F0A3BC3168E1
:10375000706B091D00F09EFCB06A844200D2B46216
:10376000BDE8F081300000204C0E002070B504460A
:1037700000F0B4FC1C4DA868401CA860286810B17B
:10378000686938B10CE02C60A868012808D100F005
:1037900095F905E02868E16AC06A884200D82C6083
:1037A000686A401C6862E06A01212A69814011430D
:1037B00029610E4900EB800001EB8000211D00F023
:1037C00081FC00F0ABFC686900280CD02868E16A35
:1037D000C06A884207D206494FF080500860BFF3A4
:1037E0004F8FBFF36F8F70BD30000020700D002031
:1037F00004ED00E038B500F071FC104C2068C8B949
:103800000F4800F039FC0E48143000F035FC0C482D
:10381000E060143020610A4B0020E83B009003F187
:10382000480210210A2000F09BFE206010B105A183
:1038300000F0F8FCBDE8384000F070BC6C000020DF
:10384000480F0020546D72510000000070B50C4DFF
:103850000C4E11E000F042FCF068C468201D00F03E
:10386000E2FBA868401EA8606868401E686000F01F
:1038700055FC204600F053F868680028EAD170BD76
:1038800030000020380E002030B40B46026C002AB5
:103890000CD0C1681144C1608468A14201D30168A1
:1038A000C160C16830BC1846FCF7B5BD30BC70477C
:1038B0002DE9F041044617460026A56B226C002A2C
:1038C00010D0C7B1E068FCF7A6FDE168206C091ACA
:1038D000E1602268914202D2A168081AE060022FDA
:1038E00016D017E02068A8B9A06801F089F906464B
:1038F0000020A0600EE06068FCF78DFD216C606820
:1039000008446060A168884204D32068606001E0D8
:1039100005B16D1E6D1CA5633046BDE8F08110B584
:10392000044694F8510000280BD0012811D0022839
:1039300014D0502080F31188BFF34F8FBFF36F8FE7
:10394000FEE7206B00F000FC2046BDE8104000F0D0
:10395000FBBB2046BDE8104000F0F6BB10BD0000E8
:103960000749CA681168002904D00021016019B113
:10397000002070470121F9E7D06800687047000017
:103980006C0000204FF4C0410F48420706D0C01D14
:1039900020F007000C49411AC1F5C0410B4A1060E4
:1039A000002353600144083921F00701183A1160DF
:1039B0004B600B600B1A4360016040689060506080
:1039C0004FF0004050617047700F002098000020B9
:1039D000074E4FF08054074DFFF738FF306801283D
:1039E000FAD92C60BFF34F8FBFF36F8FF4E700005D
:1039F000700D002004ED00E003460098002905D07A
:103A00000260C3630164012100F0E0BD0060F8E7DB
:103A10002DE9F05F8246DDE90A590C9C0E461746F7
:103A20009B46B900A522206BFCF76CFD206B7F1E26
:103A300000EB870020F00707780707D0502080F3BD
:103A40001188BFF34F8FBFF36F8FFEE74FF0000871
:103A500066B100202218315C82F83410315C11B15B
:103A6000401C1028F6D384F8438001E084F83480A9
:103A7000072D00D30625E5626564C4F84880201D43
:103A800000F005FB04F1180000F001FB2461C5F112
:103A90000700A0616462C4F84C8084F8508084F808
:103AA00052805A465146384600F0A6FA2060B9F1D5
:103AB000000F01D0C9F80040BDE8F09F70B50024A8
:103AC000124D04EB840005EB800000F0D5FA641C75
:103AD000072CF6D30D488C3000F0CEFA0B48A030FE
:103AE00000F0CAFA0948B43000F0C6FA0748C830F6
:103AF00000F0C2FA0548DC3000F0BEFA0349044881
:103B00008C3141631431816370BD0000700D002061
:103B10003000002030B5134900E011460A688242A7
:103B2000FBD34B685C18844203D14068184448605A
:103B300008460D6844682318AB420DD1094B183B69
:103B40001B689A4206D05268224442600A68126892
:103B5000026002E0036000E00260814200D0086081
:103B600030BD00009800002070B500244160006165
:103B70000C4D91420AD8D11A8269914201D3012495
:103B80000EE0011D286900F085FA09E09A4203D28F
:103B9000994201D3012403E0011DE86800F07AFA9C
:103BA000204670BD6C00002010B5044600F096FA67
:103BB000A06B20B1002400F0B1FA204610BD012412
:103BC000F9E710B5044600F089FAA06BE16B884272
:103BD00001D1012400E0002400F0A0FA204610BD2D
:103BE000F8B505460E461748C068C068C468201D71
:103BF00000F019FA94F82400410718D5A0692B4663
:103C0000411932462046FFF7AFFFA0B1002003461E
:103C1000014600902A46204601F016F958B9502076
:103C200080F31188BFF34F8FBFF36F8FFEE720F053
:103C3000010084F82400216A01B02046BDE8F0406C
:103C4000084700006C00002030B587B03C4D6EE0A6
:103C50000398002803DADDE90420069990470398C9
:103C6000002864DB059C606910B1201D00F0DBF9C1
:103C700002A800F0AFF8024603980A2857D2DFE8FE
:103C800000F00505052D334A05052D3394F8240071
:103C900040F0010084F824000498A169034601441F
:103CA0002046FFF761FF68B3216A2046884794F8F1
:103CB000240040073BD5002000900498A169002310
:103CC00042181946204601F0BFF8D8B9502080F3B9
:103CD0001188BFF34F8FBFF36F8FFEE714F8240FE7
:103CE00020F00100207022E094F8240040F0010050
:103CF00084F824000498A06128B181181346204656
:103D0000FFF732FF13E0502080F31188BFF34F8F8D
:103D1000BFF36F8FFEE794F82400810703D4204699
:103D200000F012FA03E020F0010084F824000022E1
:103D300003A9286800F0A2FD002889D107B030BD92
:103D40006C000020F8B506460D4600F057FB6846AB
:103D500000F040F80446009810B100F0DBFFF8BD19
:103D600045B9A64206D800F0D5FF21463046FFF7F8
:103D700037FFF8BD0C481DB10169096891B10025F4
:103D8000311B2A46006800F05FFA00F0C3FF0028EC
:103D9000EFD106494FF080500860BFF34F8FBFF35B
:103DA0006F8FF8BD0125EBE76C00002004ED00E00B
:103DB0000748416B0968002905D0416BC968C9688B
:103DC0004968816270474FF0FF318162704700009F
:103DD0003000002070B5054600F0A4FE0446074EF2
:103DE000B068844204D200F00BF80120286001E0A2
:103DF00000202860B460204670BD00006C000020E8
:103E0000F8B51A4E20E0C0680568C468201D00F0AF
:103E10000AF9216A2046884794F82400400713D500
:103E2000A0692844A84206D960602461211DF06879
:103E300000F030F908E000200346014600902A46D1
:103E4000204601F001F840B1F06801680029DAD19C
:103E5000F0683169F1603061F8BD502080F311885D
:103E6000BFF34F8FBFF36F8FFEE700006C000020A1
:103E700009484068401C07D0502080F31188BFF3E8
:103E80004F8FBFF36F8FFEE7502080F31188BFF391
:103E90004F8FBFF36F8FFEE7A000002008B5684684
:103EA000FFF75EFD0099FFF74DFFFFF7CDFEF6E748
:103EB0002DE9F041044600F011F994F9455004F160
:103EC000240609E0606A48B1304600F0E5FE08B11A
:103ED00000F00EFA6D1E6DB2002DF3DC4FF0FF36D0
:103EE00084F8456000F01AF900F0F8F894F94450AD
:103EF00004F1100709E0206948B1384600F0CCFE13
:103F000008B100F0F5F96D1E6DB2002DF3DC84F8F8
:103F10004460BDE8F04100F001B900002DE9F04136
:103F20000546002600F06AFA324F386808B9FFF7F4
:103F300029FD786905424DD18DB1083568070ED04D
:103F400005F00700C0F108000544680707D05020BD
:103F500080F31188BFF34F8FBFF36F8FFEE7CDB3B0
:103F60007868854236D8234918310846046801E04C
:103F7000214604466068A84202D220680028F7D192
:103F80003868844226D00E68083620680860606869
:103F9000411B10290ED96019420707D0502080F329
:103FA0001188BFF34F8FBFF36F8FFEE741606560ED
:103FB000FFF7B0FD61687868401A7860BA6890428F
:103FC00000D2B86078690143616000202060F86821
:103FD000401CF86000F09EFE700707D0502080F370
:103FE0001188BFF34F8FBFF36F8FFEE73046BDE8F8
:103FF000F08100008000002024384FF080730362BD
:1040000021F00101C1610449816142606FF0020148
:1040100040F8201970470000713E000810B50120DB
:10402000FFF72FFBFBE70169D0E901329A60D0E985
:1040300001235A604A68824201D182684A600022A4
:1040400002610868401E086008687047034B0360FF
:1040500003F154000860802010607047AC0000201D
:10406000044B036003F1540008604FF4807010604B
:10407000704700000003002000F1080141604FF08C
:10408000FF328260C1600161002101607047002140
:104090000161704730B50C68621C02D000F1080263
:1040A00002E0026904E01A4653681D68A542FAD985
:1040B00053684B6099608A60516008610168491CCF
:1040C000016030BD42684A6093688B6093685960B4
:1040D000916008610168491C01607047502080F3BD
:1040E0001188BFF34F8FBFF36F8F0A494868401C98
:1040F000486001280CD10848006810F0FF0F07D075
:10410000502080F31188BFF34F8FBFF36F8FFEE70E
:1041100070470000A000002004ED00E00949486855
:10412000002806D0401E4860002801D180F3118885
:104130007047502080F31188BFF34F8FBFF36F8F0C
:10414000FEE70000A000002070B500282AD0083843
:104150000446154D60686969084207D1502080F314
:104160001188BFF34F8FBFF36F8FFEE722683AB11C
:10417000502080F31188BFF34F8FBFF36F8FFEE79E
:104180008843606000F03AF96068696808446860D4
:104190002046FFF7BFFC2869401C2861BDE870403D
:1041A00000F0B8BD70BD0000800000204FF0E0209E
:1041B00000210161816105494FF47A720968B1FB00
:1041C000F2F1491E41610721016170472C00002076
:1041D00010B5FCF785F8114910280ED300F1E02046
:1041E00090F8F0030A78904207D2502080F31188AB
:1041F000BFF34F8FBFF36F8FFEE7094800688968F0
:1042000000F4E060884207D9502080F31188BFF3A2
:104210004F8FBFF36F8FFEE710BD0000A00000209E
:104220000CED00E010B50022064B53F832401CB1F3
:10423000521C082AF9D310BD43F8321003EBC20117
:10424000486010BD300D002070B504460D4616467E
:10425000FFF744FF94F944304FF000005B1C01D19C
:1042600084F8440094F94510491C01D184F84500B4
:10427000FFF754FFA06B28B93246294604F1240009
:1042800000F056F82046BDE87040FFF711BE000070
:1042900010B502460020002A12D00F48006B38B13A
:1042A000502080F31188BFF34F8FBFF36F8FFEE76D
:1042B00000F0A4F800211046FFF71CFA00F02AFDD8
:1042C000002807D105494FF080500860BFF34F8F99
:1042D000BFF36F8F10BD00003000002004ED00E040
:1042E00002490A6A0260C9684160704730000020D4
:1042F00001490120C86170473000002010B50C460C
:1043000000280AD0094909681831FFF7C3FE204682
:10431000BDE810400121FFF7EDB9502080F311886E
:10432000BFF34F8FBFF36F8FFEE700003000002018
:1043300070B50D46144600280DD00B490968183198
:10434000FFF7C0FE0CB14FF0FF3521462846BDE80F
:104350007040FFF7CFB9502080F31188BFF34F8F23
:10436000BFF36F8FFEE700003000002030B587B04C
:1043700000250695059504AA05A906A8FFF766FE7F
:10438000DDE90510CDE900510290002317A119487D
:10439000049A00F08BFB184CE06208B1012000E0A9
:1043A0000020012801D100F01BFD012809D0401C8C
:1043B00019D1502080F31188BFF34F8FBFF36F8F57
:1043C000FEE7502080F31188BFF34F8FBFF36F8F4C
:1043D0004FF0FF30A06201206061E56007B0BDE8EA
:1043E000304000F043B807B030BD000049444C45B0
:1043F00000000000D1390008300000200248016BA5
:10440000491C01637047000030000020154A106B02
:10441000002802D00120D06170470020D0611069CF
:10442000B0FA80F0C0F11F000F4900EB800051F896
:10443000203073B101EB800041684968416000F1B0
:104440000803994201D1496841604068C068106022
:104450007047502080F31188BFF34F8FBFF36F8FE9
:10446000FEE7000030000020700D00201CB537482A
:104470000168374A914207D1502080F31188BFF379
:104480004F8FBFF36F8FFEE700683149491E8842A6
:1044900007D1502080F31188BFF34F8FBFF36F8F88
:1044A000FEE72C4908780190FF20087008780090FA
:1044B0009DF800009DF8002000F0F000904207D029
:1044C000502080F31188BFF34F8FBFF36F8FFEE74B
:1044D0009DF80000204C00F0500020700720A060E4
:1044E00006E0A068401EA0609DF80000400000901B
:1044F0009DF800000006F4D4A068032807D05020DF
:1045000080F31188BFF34F8FBFF36F8FFEE74FF437
:104510004070A060019808700C482030016841F498
:1045200070010160016841F070410160FFF73EFEDB
:1045300000206060FBF79CFE0848016841F04041A4
:104540000160FBF781FE00201CBD000000ED00E0D3
:1045500071C20F4100E400E0A000002034EF00E051
:1045600038B5049D002804D05BB102B189B1C2B155
:1045700020E0502080F31188BFF34F8FBFF36F8F7F
:10458000FEE7502080F31188BFF34F8FBFF36F8F8A
:10459000FEE7502080F31188BFF34F8FBFF36F8F7A
:1045A000FEE739B1502080F31188BFF34F8FBFF37E
:1045B0006F8FFEE7482400941C46012384F84630A0
:1045C0002B460094FFF718FA204638BD70B5044614
:1045D0000D46002C25D0FFF781FDD4E90F2021687E
:1045E00002FB0011A1600021A16321686160E06B02
:1045F0002268216C401E00FB0121E1604FF0FF307A
:1046000084F8440084F8450004F110008DB1FFF7F0
:1046100033FD04F12400FFF72FFDFFF77FFD01209C
:1046200070BD502080F31188BFF34F8FBFF36F8FA1
:10463000FEE721690029F0D000F02EFB0028ECD025
:1046400004494FF080500860BFF34F8FBFF36F8F66
:10465000E3E7000004ED00E02DE9FF4782B00446E7
:104660008A461E460025002C03D0BAF1000F08D060
:1046700011E0502080F31188BFF34F8FBFF36F8F8D
:10468000FEE7206C38B1502080F31188BFF34F8FC4
:10469000BFF36F8FFEE7022E0AD1E06B012807D02F
:1046A000502080F31188BFF34F8FBFF36F8FFEE769
:1046B00000F02AFA48B9049838B1502080F31188E4
:1046C000BFF34F8FBFF36F8FFEE74FF000094FF03E
:1046D0008057DFF8E480FFF701FDA06BE16B8842B3
:1046E00005D3022E03D0049808B325B327E0324641
:1046F00051462046FFF7DCF8616A59B104F1240005
:1047000000F0CAFA68B1C8F80070BFF34F8FBFF36A
:104710006F8F06E028B1C8F80070BFF34F8FBFF36A
:104720006F8FFFF7FBFC012006B0BDE8F087FFF7B5
:10473000F5FC0020F8E76846FFF7D2FD0125FFF7FA
:10474000EDFCFFF75BFEFFF7C9FC94F94400401C49
:1047500001D184F8449094F94500401C01D184F8BB
:104760004590FFF7DBFC04A9684600F025F930B15D
:104770002046FFF79DFB00F0CDFA0020D4E720464D
:10478000FFF71FFA90B104F110000499FFF7B6FD8E
:104790002046FFF78DFB00F0BDFA00289BD1C8F83A
:1047A0000070BFF34F8FBFF36F8F94E72046FFF782
:1047B0007FFB00F0AFFA8EE704ED00E02DE9F04753
:1047C0000446894690461F46002C03D0B9F1000FDD
:1047D00008D011E0502080F31188BFF34F8FBFF352
:1047E0006F8FFEE7206C38B1502080F31188BFF343
:1047F0004F8FBFF36F8FFEE7022F0AD1E06B0128C6
:1048000007D0502080F31188BFF34F8FBFF36F8F15
:10481000FEE7FFF7DDFC5020EFF3118680F31188EF
:10482000BFF34F8FBFF36F8FA06BE16B884206D34E
:10483000022F04D0002086F31188BDE8F08794F998
:104840004550A06B3A4649462046FFF731F8681CB0
:1048500004D06D1C84F845500120ECE7606A002804
:10486000FAD004F1240000F017FA0028F4D0B8F1CF
:10487000000FF1D00120C8F80000EDE72DE9F7475F
:1048800083B004468A460026002C03D0BAF1000FFC
:1048900008D011E0502080F31188BFF34F8FBFF391
:1048A0006F8FFEE7206C38B1502080F31188BFF382
:1048B0004F8FBFF36F8FFEE700F026F948B90598D8
:1048C00038B1502080F31188BFF34F8FBFF36F8F43
:1048D000FEE700274FF08058DFF8D890FFF7FEFB87
:1048E000A56BC5B151462046FEF7CEFF6D1EA563F0
:1048F000206950B104F1100000F0CEF928B1C9F8D8
:104900000080BFF34F8FBFF36F8FFFF707FC0120CD
:1049100006B0BDE8F087059808B126B107E0FFF7BB
:10492000FDFB0020F4E701A8FFF7DAFC0126FFF702
:10493000F5FBFFF763FDFFF7D1FB94F94400401C42
:1049400001D184F8447094F94500401C01D184F8E9
:104950004570FFF7E3FB05A901A800F02DF858B159
:104960002046FFF7A5FA00F0D5F92046FFF71CF91D
:104970000028B3D00020CBE72046FFF715F990B10F
:1049800004F124000599FFF7B9FC2046FFF790FADF
:1049900000F0C0F90028A1D1C9F80080BFF34F8F03
:1049A000BFF36F8F9AE72046FFF782FA00F0B2F963
:1049B00094E7000004ED00E02DE9F04105460C46C7
:1049C000002D11D0C4B1FFF789FB1E4EF1686B6852
:1049D000CA1A30684FF0000C90F85200A0B130684D
:1049E00080F852C0012428E0502080F31188BFF3E2
:1049F0004F8FBFF36F8FFEE7502080F31188BFF316
:104A00004F8FBFF36F8FFEE72068471C07D02F68DA
:104A1000366AB74205D08B4203D801240DE000244A
:104A20000BE0904206D9801A20602846FFF758FC18
:104A3000002402E0C4F800C00124FFF76FFB204609
:104A4000BDE8F081300000202DE9FF5F8146DDE9FF
:104A50000E788A4616469B46B000FFF75FFA054679
:104A600028000AD05420FFF759FA04460CB12563F8
:104A700004E02846FFF768FB00E000249CB100201A
:104A800084F85100CDE90240CDE900785B4632461A
:104A900051464846FEF7BCFF2046FEF767FE012060
:104AA00004B0BDE8F09F4FF0FF30F9E7F0B585B0F6
:104AB0000746DDE90A600C9C002815D0E4B15425B6
:104AC00003952063022084F85100002004ADCDE955
:104AD0000240CDE900653846FEF79AFF2046FEF712
:104AE00045FE049805B0F0BD502080F31188BFF357
:104AF0004F8FBFF36F8FFEE7502080F31188BFF315
:104B00004F8FBFF36F8FFEE705484169002903D03F
:104B1000006B18B1002070470120704702207047D9
:104B2000300000200148C0687047000030000020BD
:104B30002DE9F0410026304F386B002805D0B869C8
:104B4000401CB8613046BDE8F081FD686D1CFD6019
:104B50009DB9786B006838B1502080F31188BFF39D
:104B60004F8FBFF36F8FFEE7786BB96B7963B863D4
:104B7000386A401C3862FFF71BF9B86ADFF87C809E
:104B800085420DD3786B006838B1786BC068C46813
:104B90006068854212D2B86202E04FF0FF30B8621E
:104BA0003868C06A00EB800058F82000012800D95E
:104BB0000126F8690028C5D00126C3E7201DFFF7AC
:104BC00032FAA06A18B104F11800FFF72CFAE06A73
:104BD00001213A6981401143396100EB800008EB03
:104BE0008000211DFFF76EFAE06A3968C96A8842C1
:104BF000C8D30126C6E7000030000020700D002059
:104C000070B504460020002C41D0214D29688C420B
:104C100007D0502080F31188BFF34F8FBFF36F8F01
:104C2000FEE7A16C71B1491EA164636CE26A9A420D
:104C30002DD000292BD1201DFFF7F5F9154A0121B0
:104C400040B112E0502080F31188BFF34F8FBFF3C3
:104C50006F8FFEE7E06A00EB800352F8233023B940
:104C600001FA00F3286998432861606CE062C0F1A2
:104C70000700A061E06A2B6981401943296100EBBC
:104C8000800002EB8000211DFFF71CFA012070BD9F
:104C900030000020700D00202DE9F041C068C4688C
:104CA000002C15D004F118000746FFF7BCF9174D8A
:104CB0002A6B0126A2B139461548FFF703FAE06ACC
:104CC0002968C96A88421ED90120EE61BDE8F081D9
:104CD000502080F31188BFF34F8FBFF36F8FFEE733
:104CE000201DFFF7A0F9E06A2A6906FA00F11143D6
:104CF0002961074900EB8000B43901EB8000211DD8
:104D0000FFF7E0F9DBE70020E0E7000030000020DB
:104D1000240E00202DE9F041002400272D4D286BA2
:104D2000002807D0FFF7DAF9286B401E2863286BAC
:104D300040B14AE0502080F31188BFF34F8FBFF39A
:104D40006F8FFEE7A868E8B3DFF88C8001261EE0CD
:104D5000D8F80C00C46804F11800FFF764F9201DAE
:104D6000FFF761F9E06A2A6906FA00F11143296147
:104D7000194900EB8000B43901EB8000211DFFF7D9
:104D8000A1F9E06A2968C96A884200D3EE61D8F8BF
:104D900000000028DCD10CB1FFF70AF8AC6944B17F
:104DA000FFF7C6FE00B1EE61641E002CF8D10020B2
:104DB000A861E86930B10127084938070860BFF3E6
:104DC0004F8F00E001E0BFF36F8FFFF7A7F9384680
:104DD000BDE8F08130000020240E002004ED00E04A
:104DE00030B587B00024FEF705FD134D2868B0B13B
:104DF00000200690059004AA05A906A8FFF730F93F
:104E0000DDE905100222CDE90021029000230BA16B
:104E10000C48049AFFF74AFE686000B1012414B1FF
:104E200007B0204630BD502080F31188BFF34F8F6C
:104E3000BFF36F8FFEE700006C000020546D7220FE
:104E4000537663009D3E00082DE9FF4106460A9F08
:104E50009C460020002E15D0154D2C68002C0ED03D
:104E600000910192029606291BDAFFF74DFE0228F7
:104E700010D000231A4669462868FFF7EDFB04B0FE
:104E8000BDE8F081502080F31188BFF34F8FBFF34E
:104E90006F8FFEE700233A4669462868FFF7DCFB80
:104EA000EDE70023624669462046FFF787FCE6E708
:104EB0006C0000204FF04070E1EE100A70470000D7
:104EC000784F00085328000803000000000000008D
:104ED000000A000000000000000000006C4F000805
:104EE0005D280008FFFF00000000000080000000B7
:104EF0000000000000000000844F00083906000890
:104F0000010000000000000000020000000000009E
:104F100000000000A04F00081D4000080100000034
:104F20000000000000010000000000000000000080
:104F3000944F000823360008010000000000000024
:104F40000001000000000000000000000006101634
:104F5000000610160000000000000000010203041B
:104F60000607080900000000010203044C45445FE5
:104F70005441534B00000000494E535F5441534B82
:104F800000000000436861737369735F5441534BC1
:104F9000000000004465746563745F5461736B00C6
:104FA000726566657265655F757361727400000095
:104FB000D04F000800000020AC000000C401000831
:104FC0007C500008AC00002024AF0000E001000885
:104FD00000000000000000000000000000000000D1
:104FE00000000000000000000000000000000000C1
:104FF0000100000010000000000000000024F40088
:1050000000000000000000000000000000000000A0
:105010000000000000000000000000000000000090
:105020000000000000000000000000000000000080
:105030000000000000000000000000000000000070
:105040000000000000000000000000000000000060
:105050000000000000000000000000000000000050
:105060000000000000000000000000000000000040
:0C50700000000000AAAAAAAA000000008C
:040000050800018965
:00000001FF
